:100000000C9456000C9473000C9473000C947300C1
:100010000C9473000C9473000C9473000C94730094
:100020000C9473000C9473000C9452060C9473009F
:100030000C9473000C9473000C9473000C94730074
:100040000C9473000C94D0010C9473000C94730006
:100050000C9473000C9473000C9473000C94730054
:100060000C9473000C9473000C9473000C94730044
:100070000C9473000C9473000C9473000C94730034
:100080000C9473000C9473000C9473000C94730024
:100090000C9473000C9473000C9473000C94730014
:1000A0000C9473000C9473000C94730011241FBE05
:1000B000CFEFDAE0DEBFCDBF11E0A0E0B1E0E8E1D4
:1000C000FAE102C005900D92A831B107D9F724E0FA
:1000D000A8E1B1E001C01D92A33DB207E1F70E9483
:1000E0001C090C940A0D0C94000031E1FC013083D2
:1000F000319722E220833197A3E3A0833197608375
:100100003197708331971082319760E8608331971F
:100110001082319762E06083319763E060833197AA
:1001200064E06083319765E06083319766E06083C7
:10013000319767E06083319768E06083319769E0C9
:100140006083319760E1608331973083319732E18A
:100150003083319733E13083319734E13083319705
:1001600035E13083319736E13083319737E13083A1
:10017000319738E13083319739E13083319730E27C
:100180003083319731E2308331972083319723E2F6
:1001900020833197408331975083319726E2208323
:1001A000319727E22083319728E22083319729E293
:1001B0002083319720E32083319721E320838697A2
:1001C00008951092890089EF809388008BE08093D6
:1001D0008100EFE6F0E0808182608083A091BD0421
:1001E000B091BE04CD91CDBFDD91DEBFFF91EF9107
:1001F000DF91CF91BF91AF919F918F917F916F913F
:100200005F914F913F912F911F910F91FF90EF9030
:10021000DF90CF90BF90AF909F908F907F906F9026
:100220005F904F903F902F901F900F900FBE0F90B8
:10023000089581E008950F920FB6F8940F921F92DF
:1002400011242F923F924F925F926F927F928F92E2
:100250009F92AF92BF92CF92DF92EF92FF920F9355
:100260001F932F933F934F935F936F937F938F933E
:100270009F93AF93BF93CF93DF93EF93FF93A0919F
:10028000BD04B091BE040DB60D920EB60D920E9443
:100290007F05A091BD04B091BE04CD91CDBFDD918D
:1002A000DEBFFF91EF91DF91CF91BF91AF919F9111
:1002B0008F917F916F915F914F913F912F911F91FE
:1002C0000F91FF90EF90DF90CF90BF90AF909F90F5
:1002D0008F907F906F905F904F903F902F901F90E6
:1002E0000F900FBE0F9008950F920FB6F8940F92D3
:1002F0001F9211242F923F924F925F926F927F92A2
:100300008F929F92AF92BF92CF92DF92EF92FF9225
:100310000F931F932F933F934F935F936F937F930D
:100320008F939F93AF93BF93CF93DF93EF93FF93FD
:10033000A091BD04B091BE040DB60D920EB60D9203
:100340000E94040481110E947F05A091BD04B09118
:10035000BE04CD91CDBFDD91DEBFFF91EF91DF9166
:10036000CF91BF91AF919F918F917F916F915F914D
:100370004F913F912F911F910F91FF90EF90DF9040
:10038000CF90BF90AF909F908F907F906F905F9035
:100390004F903F902F901F900F900FBE0F90089599
:1003A0000E9474011895CF93DF93EC010E94FE0325
:1003B00080911A0190911B01892B31F48FE191E01A
:1003C00090931B0180931A0120911C0130911D0113
:1003D000CE01820F931F813543E0940770F42817F4
:1003E000390770F4C0911A01D0911B01C20FD31FBD
:1003F00090931D0180931C0105C0C0E0D0E002C0B5
:10040000C0E0D0E00E94DD04CE01DF91CF910895DD
:100410000895FC010396928381832FEF3FEF34838D
:100420002383968385839087878310820895FC01B8
:10043000118610860895CF93DF939C01FB01DC01A8
:100440001196CD91DC911297D383C2838C819D81CB
:10045000958384838C819D81DC0113967C936E93BC
:1004600012977D836C8331872087F90180818F5FAC
:100470008083DF91CF910895CF93DF93EB01488183
:1004800059814F3F2FEF520721F4FC01A781B0851E
:100490000DC0DC01139601C0DF011296ED91FC91B5
:1004A00013972081318142175307B0F71296ED91CF
:1004B000FC911397FB83EA83D583C483BD83AC830C
:1004C0001396DC93CE93129799878887FC0120813D
:1004D0002F5F2083DF91CF910895CF93DF93FC01AD
:1004E000A085B185C281D381848195819D838C83D0
:1004F000C481D581828193819B838A831196CD911A
:10050000DC911297CE17DF0731F48C819D81129612
:100510009C938E931197118610868C9181508C93A9
:10052000DF91CF910895FFCFCF93DF93EC01E0915E
:10053000BD04F091BE0493838283809177049091EF
:100540007804C817D90768F46091BD047091BE049F
:1005500080918304909184046E5F7F4F0E943C02DF
:1005600017C06091BD047091BE0480918504909184
:1005700086046E5F7F4F0E943C0280910001909143
:100580000101C817D90720F4D0930101C0930001DD
:10059000DF91CF9108954F925F926F927F928F92E9
:1005A0009F92AF92BF92CF92DF92EF92FF920F9302
:1005B0001F93CF93DF934C01EB015A01290181E294
:1005C00090E00E94D3013C01009709F4DAC0C11405
:1005D000D10409F0D2C0C5010E94D301F301908F6C
:1005E000878B892B21F4C3010E940802CAC0F1E065
:1005F000AF1AB108F3018789908DA80EB91E8881C2
:10060000818F8881882381F0D3015A96FE0131962B
:100610009E01285F3F4FEF0181918D938881882350
:1006200019F0E217F307B9F7F30110A2102F043005
:1006300008F013E0F301168BE3012296CE010E942D
:100640001702C3010C960E941702F301718660869F
:1006500084E090E0811B910995878487738A628A80
:10066000A201B401C5010E947500F301918380834A
:10067000E114F10419F0F701718260820FB6F89469
:100680000F92809179048F5F809379048091BD04EB
:100690009091BE04892B89F57092BE046092BD04CE
:1006A000809179048130C1F589E994E00E940902C2
:1006B00082EA94E00E9409028BEA94E00E94090217
:1006C00084EB94E00E94090280E994E00E94090210
:1006D00087E894E00E9409028AE794E00E940902F8
:1006E00080E994E0909386048093850487E894E001
:1006F00090938404809383040FC0809175048111CA
:100700000BC0E091BD04F091BE048689081720F06B
:100710007092BE046092BD04809171048F5F8093DB
:100720007104F301868990917604981710F48093F0
:10073000760490E09C01220F331F220F331F220FFB
:10074000331F820F931FBE0187569B4F0E941B02CF
:100750000F900FBE80917504882359F0E091BD047D
:10076000F091BE048689801730F40E941B0181E05D
:1007700009C081E007C081E005C0FC01D08EC78AB6
:1007800036CF8FEFDF91CF911F910F91FF90EF90B8
:10079000DF90CF90BF90AF909F908F907F906F90A1
:1007A0005F904F900895AF92BF92CF92DF92EF92F9
:1007B000FF920F93A12CB12CC12CD12CE12CF12C48
:1007C00000E020E030E045E550E062E071E083E9E0
:1007D00092E00E94CB02813049F4F8948093750432
:1007E00010927804109277040E94E1000F91FF901C
:1007F000EF90DF90CF90BF90AF90089580917004FC
:100800008F5F809370040895CF92DF92EF92FF92F2
:100810000F931F93CF93DF93809170048111B7C022
:100820008091770490917804019690937804809356
:100830007704E0907704F0907804E114F10499F5DE
:1008400080918504909186042091830430918404E2
:1008500030938604209385049093840480938304CA
:10086000809172048F5F80937204E0918504F0910F
:1008700086048081811107C08FEF9FEF9093010163
:100880008093000110C0E0918504F09186040580FA
:10089000F681E02D0680F781E02D8281938190938F
:1008A0000101809300018091000190910101E816FF
:1008B000F90610F4D12C53C0D12CCC24C394E09170
:1008C0008504F09186049081911107C08FEF9FEF0E
:1008D000909301018093000142C0E0918504F09162
:1008E00086040580F681E02DC681D7812A813B816F
:1008F000E216F30628F430930101209300012FC083
:100900008E010E5F1F4FC8010E946D028C899D8968
:10091000892B21F0CE010C960E946D022E898091C8
:100920007604821710F42093760430E0C901880F12
:10093000991F880F991F880F991F820F931FB80165
:1009400087569B4F0E941B02E091BD04F091BE04AC
:100950009E898689981708F4B2CFDC2CB0CFE0913D
:10096000BD04F091BE04868990E0FC01EE0FFF1FEC
:10097000EE0FFF1FEE0FFF1F8E0F9F1FFC01E756AC
:10098000FB4F8081823048F0DD24D39406C08091F3
:1009900074048F5F80937404D12C80917304882336
:1009A00011F0DD24D3948D2DDF91CF911F910F9104
:1009B000FF90EF90DF90CF900895DF92EF92FF923B
:1009C0000F931F93CF93DF930FB6F8940F928091FC
:1009D000700481508093700480917004811162C012
:1009E00080917904811133C060C0D7011596ED91D3
:1009F000FC911697C681D781CE010C960E946D029C
:100A00008E010E5F1F4FC8010E946D022E898091DA
:100A10007604821710F42093760430E0C901880F21
:100A2000991F880F991F880F991F820F931FB80174
:100A300087569B4F0E941B02E091BD04F091BE04BB
:100A40009E898689981758F0D092730408C00F2E9B
:100A5000FAE7EF2EF4E0FF2EF02DDD24D394F7011A
:100A600080818111C2CF80917404882399F0809194
:100A70007404882379F0C1E00E9404048111C093BA
:100A80007304809174048150809374048091740481
:100A90008111F2CF80917304813031F40E941B01E7
:100AA00081E003C080E001C080E00F900FBEDF91C5
:100AB000CF911F910F91FF90EF90DF900895CF930A
:100AC000DF93EC01892BB1F00E94FE038091770443
:100AD00090917804C80FD91F8091BD049091BE04F5
:100AE00002960E946D02CE010E9494020E94DD04D3
:100AF000811102C00E941B01DF91CF910895809166
:100B00007004882321F081E080937304089510928B
:100B100073048091760490E0FC01EE0FFF1FEE0F4E
:100B2000FF1FEE0FFF1F8E0F9F1FFC01E756FB4FAD
:100B30008081811117C08091760481508093760462
:100B40008091760490E0FC01EE0FFF1FEE0FFF1F77
:100B5000EE0FFF1F8E0F9F1FFC01E756FB4F80819A
:100B6000882349F38091760490E09C01220F331F83
:100B7000220F331F220F331F280F391FD901A75609
:100B8000BB4F1196ED91FC9112970280F381E02DFD
:100B90001296FC93EE93119724563B4FE217F307FE
:100BA00029F422813381FD0132832183FC01EE0F80
:100BB000FF1FEE0FFF1FEE0FFF1F8E0F9F1FFC0189
:100BC000E756FB4F0180F281E02D8681978190935B
:100BD000BE048093BD0408958F929F92BF92CF92DE
:100BE000DF92EF92FF920F931F93CF93DF938730A3
:100BF00070F126C0292F2F70E7012883891731F063
:100C0000E80178812081E401588103C0242F762FE8
:100C10005B2D21FF12C03C913E7F3C9330813D7F94
:100C200030833C9131603C93E80178832083E40178
:100C30005883E6012881222344F49F5F9730D1F640
:100C40008F708093E90081E021C080E01FC0982F61
:100C50009F709093E900982F242F762F50E0ABEEF1
:100C6000B0E0EDEEF0E00CEE10E00F2EF0EF8F2E86
:100C7000912CF02D0F2EFEEECF2ED12CF02D0F2E1D
:100C8000F9EEEF2EF12CF02DB12CC3CFDF91CF91E7
:100C90001F910F91FF90EF90DF90CF90BF909F90AA
:100CA0008F9008951F920F920FB60F9211242F93D9
:100CB0003F934F935F936F937F938F939F93AF93E4
:100CC000BF93EF93FF938091E10082FF0BC080916F
:100CD000E20082FF07C0E1EEF0E080818B7F80833D
:100CE0000E9419078091DA0080FF1FC08091D80010
:100CF00080FF1BC0EAEDF0E080818E7F80838091D1
:100D0000D90080FF0DC080E189BD82E189BD09B4B1
:100D100000FEFDCF81E08093C7040E94190705C043
:100D200019BC1092C7040E9419078091E10080FF4E
:100D300017C08091E20080FF13C0E2EEF0E08081F6
:100D40008E7F8083808180618083E8EDF0E0808108
:100D50008062808319BC85E08093C7040E941907D4
:100D60008091E10084FF30C08091E20084FF2CC0BC
:100D700080E189BD82E189BD09B400FEFDCFE8EDC7
:100D8000F0E080818F7D8083E1EEF0E080818F7ED6
:100D90008083E2EEF0E080818F7E808380818160BD
:100DA00080838091C304882321F084E08093C7046A
:100DB00009C08091E300882314F081E001C083E042
:100DC0008093C7040E9419078091E10083FF20C02F
:100DD0008091E20083FF1CC0E1EEF0E08081877F1C
:100DE000808382E08093C7041092C30480818E7F49
:100DF0008083E2EEF0E080818E7F8083808180615D
:100E0000808342E060E080E00E94EC050E941907C8
:100E1000FF91EF91BF91AF919F918F917F916F91D2
:100E20005F914F913F912F910F900FBE0F901F90A8
:100E3000189508958130910589F01CF4892B39F0BB
:100E400008958230910599F00397E1F0089558983C
:100E50008BB1862B8BB96093C204089559988BB1DE
:100E6000962F990F892B8BB96093C10408955C98D4
:100E70002BB130E1639FC0011124822B8BB96093A9
:100E8000C0040895469828B130E4639FC00111243E
:100E9000822B88B96093BF0408950F931F93CF935B
:100EA000DF93EC010881198167E071E0C8010E94BD
:100EB000DA0C892B09F04CC00A811B816DE071E0CE
:100EC000C8010E94DA0C892BF1F40C80DD81C02D61
:100ED0006DE071E0CE010E94DA0C892B31F461E003
:100EE00081E090E00E941A0756C066E171E0CE01F1
:100EF0000E94DA0C892B09F04EC060E081E090E09E
:100F00000E941A0748C066E171E0C8010E94DA0C2D
:100F1000892B09F040C00C80DD81C02D6DE071E0AF
:100F2000CE010E94DA0C892B31F461E083E090E07D
:100F30000E941A0730C066E171E0CE010E94DA0C0F
:100F4000892B49F560E083E090E00E941A0723C0F6
:100F50006FE071E0C8010E94DA0C892BE1F40A808D
:100F6000DB81C02D6DE071E0CE010E94DA0C892B8F
:100F700031F461E080E090E00E941A070CC066E165
:100F800071E0CE010E94DA0C892B29F460E080E048
:100F900090E00E941A0780E090E0DF91CF911F91CE
:100FA0000F910895EF92FF920F931F93CF93DF93CA
:100FB000CDB7DEB764970FB6F894DEBF0FBECDBFD6
:100FC00063E171E00E94D50C0097D9F09A83898380
:100FD0007E0183E0E80EF11C01E010E009C0F7019A
:100FE000819391937F010F5F1F4F0A30110559F0D4
:100FF00063E171E080E090E00E94D50C009779F702
:1010000002C000E010E0B801CE0101960E944D0739
:1010100064960FB6F894DEBF0FBECDBFDF91CF91BF
:101020001F910F91FF90EF900895CF93DF93CDB76D
:10103000DEB7A3970FB6F894DEBF0FBECDBF3F9AC1
:10104000509A519A549A3E9A5698279826982598DD
:1010500056980E94330C0E94C80B0E94E40B80E05B
:101060000E94520A81E00E94520A82E00E94520AC3
:1010700083E00E94520A84E00E94520A85E00E94A6
:10108000520A80E00E948F0B81E00E948F0B82E069
:101090000E948F0B83E00E948F0B84E00E948F0BD5
:1010A00085E00E948F0B80E00E948B0A81E00E9405
:1010B0008B0A82E00E948B0A83E00E948B0A84E004
:1010C0000E948B0A85E00E948B0A8FE00E94B20A80
:1010D00080E20E94D60A0E94C40901E31CE42CE4C9
:1010E0003CE44CE450E060E070E081E00E940C0BD6
:1010F00002E32CE43CE44CE450E060E070E082E089
:101100000E940C0B03E32CE43CE44CE450E060E070
:1011100070E083E00E940C0B04E32CE43CE44CE41C
:1011200050E060E070E084E00E940C0B05E32CE4EA
:101130003CE44CE450E060E070E085E00E940C0B81
:1011400061E080E090E00E941A0761E081E090E0B9
:101150000E941A0761E082E090E00E941A0761E0B5
:1011600083E090E00E941A078E010F5F1F4FE02E70
:10117000F12E81E00E946C0C882369F06E2D7F2D8A
:1011800081E00E94860C800F911FFC0110828E2D41
:101190009F2D0E94D2074E9B12C03091C20421E0C5
:1011A00023272093C2046091C20480E090E00E9453
:1011B0001A074E99FECF82E390E00E945F051F9BC5
:1011C00012C09091C10481E089278093C10460918D
:1011D000C10481E090E00E941A071F99FECF82E3CC
:1011E00090E00E945F051E9B12C08091C00421E028
:1011F00028272093C0046091C00482E090E00E9400
:101200001A071E99FECF82E390E00E945F051D9BA6
:10121000B0CF9091BF0481E089278093BF04609193
:10122000BF0483E090E00E941A071D99FECF82E37D
:1012300090E00E945F059DCFA12CB12CC12CD12C38
:10124000E12CF12C00E020E030E044EF51E065E1DA
:1012500071E085E198E00E94CB020E94D303FFCFAA
:101260008EBD0DB407FEFDCF8EB50895FC018081C3
:101270008EBD0DB407FEFDCF8EB50895882311F005
:101280002C9A01C02C988093D1040895882311F0E2
:101290005F9A01C05F988093D0040895FF920F93E6
:1012A0001F93CF93DF93F82E8B01EA0180E00E9419
:1012B00046098F2D8F710E9430091C161D0674F48B
:1012C000F801A8014C0F5D1F9FEF9EBD0DB407FEF6
:1012D000FDCF8EB58193E417F507B9F781E00E9441
:1012E0004609DF91CF911F910F91FF900895EF92E2
:1012F000FF920F931F93CF93DF93C82F7B018A0137
:1013000080E00E9446098C2F8F7180620E94300914
:101310001016110654F4E7010E0D1F1DCE010E9498
:1013200036092196C017D107C9F781E00E94460906
:10133000DF91CF911F910F91FF90EF9008950F9340
:101340001F93CF93DF938C01EB0180E00E9446094D
:1013500081E60E9430091C161D0674F4F801B801DC
:101360006C0F7D1F8FEF8EBD0DB407FEFDCF9EB5B8
:101370009193E617F707B9F781E00E944609DF91DC
:10138000CF911F910F91089580E00E94460982EE4F
:101390000E94300981E00E9446090895CF9380E0C1
:1013A0000E94460980E60E9430098FEF0E943009B2
:1013B000C82F81E00E9446098C2F90E0CF910895BC
:1013C000CF9380E00E9446098FEF0E943009C82F1A
:1013D00081E00E9446098C2F90E0CF910895CF9331
:1013E000DF931F92CDB7DEB741E050E0BE016F5FE3
:1013F0007F4F80E00E944E0989818260898341E0AD
:1014000050E0BE016F5F7F4F80E00E9477098FE45C
:1014100096E40197F1F700C0000082E08093D204C7
:101420000F90DF91CF910895CF93DF931F92CDB7A7
:10143000DEB741E050E0BE016F5F7F4F80E00E9469
:101440004E0989818D7F898341E050E0BE016F5F45
:101450007F4F80E00E94770981E08093D2040F9053
:10146000DF91CF910895CF93DF931F92CDB7DEB771
:1014700041E050E0BE016F5F7F4F80E00E944E0967
:1014800089818160898341E050E0BE016F5F7F4FB9
:1014900080E00E94770983E08093D2040F90DF916F
:1014A000CF9108951F93CF93DF931F92CDB7DEB7EF
:1014B000182F41E050E0BE016F5F7F4F81E00E9436
:1014C0004E0921E030E0C90102C0880F991F1A952A
:1014D000E2F79981892B898341E050E0BE016F5F7B
:1014E0007F4F81E00E9477090F90DF91CF911F918C
:1014F0000895CF93DF931F92CDB7DEB7198241E0F5
:1015000050E0BE016F5F7F4F81E00E9477090F902E
:10151000DF91CF9108951F93CF93DF931F92CDB7A3
:10152000DEB7182F41E050E0BE016F5F7F4F82E0D1
:101530000E944E0921E030E0C90102C0880F991FC6
:101540001A95E2F79981892B898341E050E0BE0129
:101550006F5F7F4F82E00E9477090F90DF91CF91FC
:101560001F9108951F93CF93DF931F92CDB7DEB7DE
:10157000182F41E050E0BE016F5F7F4F84E00E9472
:101580004E0920E1129FC001112499819F70892B7F
:10159000898341E050E0BE016F5F7F4F84E00E948D
:1015A00077090F90DF91CF911F9108951F93CF93EB
:1015B000DF931F92CDB7DEB7182F41E050E0BE0198
:1015C0006F5F7F4F86E00E944E099981977D812F42
:1015D000892B898341E050E0BE016F5F7F4F86E039
:1015E0000E9477090F90DF91CF911F910895CF93BB
:1015F000DF931F92CDB7DEB70E94E0098064898334
:1016000041E050E0BE016F5F7F4F87E00E947709A5
:101610000F90DF91CF9108952F923F924F925F925A
:101620006F927F928F929F92AF92BF92CF92DF92F2
:10163000EF92FF920F931F93CF93DF9300D000D0D0
:101640001F92CDB7DEB7482EB02EA22E932E842E39
:10165000752E662E572E81E0841568F421E090E007
:101660008EEF840D843008F020E0C22ED92E1C1499
:101670001D0434F021C00F2EF5E0CF2ED12CF02D1B
:10168000DE0111967D01212C312CE0E0F0E02B2DC4
:10169000312F4A2D592D682D772D862D952D022D10
:1016A0000E94B90CD7012D937D013196B8E02B0E25
:1016B000311CEC15FD055CF3A601BE016F5F7F4F89
:1016C0008AE0840D0E9477090F900F900F900F9081
:1016D0000F90DF91CF911F910F91FF90EF90DF90CE
:1016E000CF90BF90AF909F908F907F906F905F90C2
:1016F0004F903F902F900895CF93DF931F92CDB7D7
:10170000DEB741E050E0BE016F5F7F4F87E10E948E
:101710004E09898181700F90DF91CF9108951F93B9
:10172000CF93DF931F92CDB7DEB7182F41E050E083
:10173000BE016F5F7F4F8CE10E944E0921E030E0D7
:10174000C90102C0880F991F1A95E2F79981892B68
:10175000898341E050E0BE016F5F7F4F8CE10E94C2
:1017600077090F90DF91CF911F910895CF93DF9369
:101770001F92CDB7DEB7198241E050E0BE016F5F26
:101780007F4F8CE10E9477090F90DF91CF910895F0
:10179000CF93DF931F92CDB7DEB741E050E0BE019B
:1017A0006F5F7F4F8DE10E944E098981846089833C
:1017B00041E050E0BE016F5F7F4F8DE10E947709ED
:1017C0000F90DF91CF910895CF93DF931F92CDB704
:1017D000DEB741E050E0BE016F5F7F4F8DE10E94B8
:1017E0004E0989818260898341E050E0BE016F5FCC
:1017F0007F4F8DE10E9477090F90DF91CF9108957F
:10180000CF93DF931F92CDB7DEB787E0898341E0A6
:1018100050E0BE016F5F7F4F86E00E94770919821A
:1018200041E050E0BE016F5F7F4F81E00E94770989
:1018300081E0898341E050E0BE016F5F7F4F86E029
:101840000E9477090E94EF098FE496E40197F1F76F
:1018500000C000000E94330A81E00E943E090F9000
:10186000DF91CF910895CF93DF9300D0CDB7DEB74E
:10187000579A249A2C985F9A84B1876084B92398E8
:101880008CB580658CBD80E00E943E0981E00E949D
:1018900046090E94C4090E94140A8EE0898341E02F
:1018A00050E0BE016F5F7F4F87E00E9477098BE0B9
:1018B0008A8341E050E0BE016E5F7F4F80E00E946E
:1018C00077090E94790A0E94B60B0E94000C0F90C3
:1018D0000F90DF91CF910895CF93863090F4C82F69
:1018E0000E94E00986FF0FC08E709927AC015595C4
:1018F00047952C2F30E081E04217530729F080E014
:1019000003C080E001C080E0CF9108950F931F9342
:10191000CF93DF938630F0F4EB010E946C0C8823A8
:10192000E1F000000E94CE098C018132910528F07F
:101930000E94C409802F912F15C0BC01CE010E94C6
:101940009F090E947C0B882359F00E94F70A802F80
:10195000912F08C08FEF9FEF05C080E090E002C09C
:10196000802F912FDF91CF911F910F91089597FBB9
:1019700010F8169400080F93083098F00850232FA1
:10198000342F452F562F672F782F892F902DF4CF86
:1019900005949795879577956795579547953795CA
:1019A00027950A95AAF70F91089548E151E00E9402
:1019B000E30C0895FB01DC018D9101908019011069
:1019C000D9F3990B0895FA01A191B081009719F408
:1019D0001097E1F0CD01DC01CD010D90002011F454
:1019E000C00113C0FB012191222319F02015D9F762
:1019F000F3CFFB012191201519F41E92119606C018
:101A00002223C1F70D900020A1F7D001FA01A19384
:081A1000B0830895F894FFCFA4
:101A1800FFFF49444C45006C6967687400300066F4
:081A2800616E00200074310022
:00000001FF
