S01100004D6963726F426972642E7372656398
S11300000C9456000C9473000C9473000C947300BD
S11300100C9473000C9473000C9473000C94730090
S11300200C9473000C9473000C9452060C9473009B
S11300300C9473000C9473000C9473000C94730070
S11300400C9473000C94D0010C9473000C94730002
S11300500C9473000C9473000C9473000C94730050
S11300600C9473000C9473000C9473000C94730040
S11300700C9473000C9473000C9473000C94730030
S11300800C9473000C9473000C9473000C94730020
S11300900C9473000C9473000C9473000C94730010
S11300A00C9473000C9473000C94730011241FBE01
S11300B0CFEFDAE0DEBFCDBF11E0A0E0B1E0EAE2CD
S11300C0FEE102C005900D92A432B107D9F724E0F5
S11300D0A4E2B1E001C01D92A93DB207E1F70E947C
S11300E0CF070C94130F0C94000031E1FC01308312
S11300F0319722E220833197A3E3A0833197608371
S11301003197708331971082319760E8608331971B
S11301101082319762E06083319763E060833197A6
S113012064E06083319765E06083319766E06083C3
S1130130319767E06083319768E06083319769E0C5
S11301406083319760E1608331973083319732E186
S11301503083319733E13083319734E13083319701
S113016035E13083319736E13083319737E130839D
S1130170319738E13083319739E13083319730E278
S11301803083319731E2308331972083319723E2F2
S113019020833197408331975083319726E220831F
S11301A0319727E22083319728E22083319729E28F
S11301B02083319720E32083319721E3208386979E
S11301C008951092890089EF809388008BE08093D2
S11301D08100EFE6F0E0808182608083A091C70413
S11301E0B091C804CD91CDBFDD91DEBFFF91EF91F9
S11301F0DF91CF91BF91AF919F918F917F916F913B
S11302005F914F913F912F911F910F91FF90EF902C
S1130210DF90CF90BF90AF909F908F907F906F9022
S11302205F904F903F902F901F900F900FBE0F90B4
S1130230089581E008950F920FB6F8940F921F92DB
S113024011242F923F924F925F926F927F928F92DE
S11302509F92AF92BF92CF92DF92EF92FF920F9351
S11302601F932F933F934F935F936F937F938F933A
S11302709F93AF93BF93CF93DF93EF93FF93A0919B
S1130280C704B091C8040DB60D920EB60D920E942B
S11302907F05A091C704B091C804CD91CDBFDD9175
S11302A0DEBFFF91EF91DF91CF91BF91AF919F910D
S11302B08F917F916F915F914F913F912F911F91FA
S11302C00F91FF90EF90DF90CF90BF90AF909F90F1
S11302D08F907F906F905F904F903F902F901F90E2
S11302E00F900FBE0F9008950F920FB6F8940F92CF
S11302F01F9211242F923F924F925F926F927F929E
S11303008F929F92AF92BF92CF92DF92EF92FF9221
S11303100F931F932F933F934F935F936F937F9309
S11303208F939F93AF93BF93CF93DF93EF93FF93F9
S1130330A091C704B091C8040DB60D920EB60D92EB
S11303400E94040481110E947F05A091C704B0910A
S1130350C804CD91CDBFDD91DEBFFF91EF91DF9158
S1130360CF91BF91AF919F918F917F916F915F9149
S11303704F913F912F911F910F91FF90EF90DF903C
S1130380CF90BF90AF909F908F907F906F905F9031
S11303904F903F902F901F900F900FBE0F90089595
S11303A00E9474011895CF93DF93EC010E94FE0321
S11303B08091240190912501892B31F489E291E007
S11303C090932501809324012091260130912701E7
S11303D0CE01820F931F813543E0940770F42817F0
S11303E0390770F4C0912401D0912501C20FD31FA5
S11303F0909327018093260105C0C0E0D0E002C09D
S1130400C0E0D0E00E94DD04CE01DF91CF910895D9
S11304100895FC010396928381832FEF3FEF348389
S11304202383968385839087878310820895FC01B4
S1130430118610860895CF93DF939C01FB01DC01A4
S11304401196CD91DC911297D383C2838C819D81C7
S1130450958384838C819D81DC0113967C936E93B8
S113046012977D836C8331872087F90180818F5FA8
S11304708083DF91CF910895CF93DF93EB0148817F
S113048059814F3F2FEF520721F4FC01A781B0851A
S11304900DC0DC01139601C0DF011296ED91FC91B1
S11304A013972081318142175307B0F71296ED91CB
S11304B0FC911397FB83EA83D583C483BD83AC8308
S11304C01396DC93CE93129799878887FC01208139
S11304D02F5F2083DF91CF910895CF93DF93FC01A9
S11304E0A085B185C281D381848195819D838C83CC
S11304F0C481D581828193819B838A831196CD9116
S1130500DC911297CE17DF0731F48C819D8112960E
S11305109C938E931197118610868C9181508C93A5
S1130520DF91CF910895FFCFCF93DF93EC01E0915A
S1130530C704F091C80493838283809181049091CD
S11305408204C817D90768F46091C7047091C8047D
S113055080918D0490918E046E5F7F4F0E943C02C7
S113056017C06091C7047091C80480918F04909162
S113057090046E5F7F4F0E943C0280910001909135
S11305800101C817D90720F4D0930101C0930001D9
S1130590DF91CF9108954F925F926F927F928F92E5
S11305A09F92AF92BF92CF92DF92EF92FF920F93FE
S11305B01F93CF93DF934C01EB015A01290181E290
S11305C090E00E94D3013C01009709F4DAC0C11401
S11305D0D10409F0D2C0C5010E94D301F301908F68
S11305E0878B892B21F4C3010E940802CAC0F1E061
S11305F0AF1AB108F3018789908DA80EB91E8881BE
S1130600818F8881882381F0D3015A96FE01319627
S11306109E01285F3F4FEF0181918D93888188234C
S113062019F0E217F307B9F7F30110A2102F043001
S113063008F013E0F301168BE3012296CE010E9429
S11306401702C3010C960E941702F301718660869B
S113065084E090E0811B910995878487738A628A7C
S1130660A201B401C5010E947500F3019183808346
S1130670E114F10419F0F701718260820FB6F89465
S11306800F92809183048F5F809383048091C704C9
S11306909091C804892B89F57092C8046092C704AC
S11306A0809183048130C1F583EA94E00E940902B9
S11306B08CEA94E00E94090285EB94E00E9409020E
S11306C08EEB94E00E9409028AE994E00E940902F8
S11306D081E994E00E94090284E894E00E940902FE
S11306E08AE994E09093900480938F0481E994E0E4
S11306F090938E0480938D040FC080917F048111A8
S11307000BC0E091C704F091C8048689081720F053
S11307107092C8046092C70480917B048F5F8093B9
S11307207B04F301868990918004981710F48093D8
S1130730800490E09C01220F331F220F331F220FED
S1130740331F820F931FBE018D559B4F0E941B02C6
S11307500F900FBE80917F04882359F0E091C70465
S1130760F091C8048689801730F40E941B0181E04F
S113077009C081E007C081E005C0FC01D08EC78AB2
S113078036CF8FEFDF91CF911F910F91FF90EF90B4
S1130790DF90CF90BF90AF909F908F907F906F909D
S11307A05F904F900895AF92BF92CF92DF92EF92F5
S11307B0FF920F93A12CB12CC12CD12CE12CF12C44
S11307C000E020E030E045E550E062E071E083E9DC
S11307D092E00E94CB02813049F4F89480937F0424
S11307E010928204109281040E94E1000F91FF9004
S11307F0EF90DF90CF90BF90AF90089580917A04EE
S11308008F5F80937A040895CF92DF92EF92FF92E4
S11308100F931F93CF93DF9380917A048111B7C014
S11308208091810490918204019690938204809334
S11308308104E0908104F0908204E114F10499F5BC
S113084080918F049091900420918D0430918E04B6
S11308503093900420938F0490938E0480938D049E
S113086080917C048F5F80937C04E0918F04F091ED
S113087090048081811107C08FEF9FEF9093010155
S11308808093000110C0E0918F04F09190040580E2
S1130890F681E02D0680F781E02D8281938190938B
S11308A00101809300018091000190910101E816FB
S11308B0F90610F4D12C53C0D12CCC24C394E0916C
S11308C08F04F09190049081911107C08FEF9FEFF6
S11308D0909301018093000142C0E0918F04F09154
S11308E090040580F681E02DC681D7812A813B8161
S11308F0E216F30628F430930101209300012FC07F
S11309008E010E5F1F4FC8010E946D028C899D8964
S1130910892B21F0CE010C960E946D022E898091C4
S11309208004821710F42093800430E0C901880FFA
S1130930991F880F991F880F991F820F931FB80161
S11309408D559B4F0E941B02E091C704F091C8048F
S11309509E898689981708F4B2CFDC2CB0CFE09139
S1130960C704F091C804868990E0FC01EE0FFF1FD4
S1130970EE0FFF1FEE0FFF1F8E0F9F1FFC01ED55A3
S1130980FB4F8081823048F0DD24D39406C08091EF
S11309907E048F5F80937E04D12C80917D04882314
S11309A011F0DD24D3948D2DDF91CF911F910F9100
S11309B0FF90EF90DF90CF900895DF92EF92FF9237
S11309C00F931F93CF93DF930FB6F8940F928091F8
S11309D07A04815080937A0480917A04811162C0F0
S11309E080918304811133C060C0D7011596ED91C5
S11309F0FC911697C681D781CE010C960E946D0298
S1130A008E010E5F1F4FC8010E946D022E898091D6
S1130A108004821710F42093800430E0C901880F09
S1130A20991F880F991F880F991F820F931FB80170
S1130A308D559B4F0E941B02E091C704F091C8049E
S1130A409E898689981758F0D0927D0408C00F2E8D
S1130A50F4E8EF2EF4E0FF2EF02DDD24D394F7011B
S1130A6080818111C2CF80917E04882399F0809186
S1130A707E04882379F0C1E00E9404048111C093AC
S1130A807D0480917E04815080937E0480917E0455
S1130A908111F2CF80917D04813031F40E941B01D9
S1130AA081E003C080E001C080E00F900FBEDF91C1
S1130AB0CF911F910F91FF90EF90DF900895CF9306
S1130AC0DF93EC01892BB1F00E94FE038091810435
S1130AD090918204C80FD91F8091C7049091C804D3
S1130AE002960E946D02CE010E9494020E94DD04CF
S1130AF0811102C00E941B01DF91CF910895809162
S1130B007A04882321F081E080937D040895109273
S1130B107D048091800490E0FC01EE0FFF1FEE0F36
S1130B20FF1FEE0FFF1F8E0F9F1FFC01ED55FB4FA4
S1130B308081811117C0809180048150809380044A
S1130B408091800490E0FC01EE0FFF1FEE0FFF1F69
S1130B50EE0FFF1F8E0F9F1FFC01ED55FB4F808191
S1130B60882349F38091800490E09C01220F331F75
S1130B70220F331F220F331F280F391FD901AD5500
S1130B80BB4F1196ED91FC9112970280F381E02DF9
S1130B901296FC93EE9311972A553B4FE217F307F5
S1130BA029F422813381FD0132832183FC01EE0F7C
S1130BB0FF1FEE0FFF1FEE0FFF1F8E0F9F1FFC0185
S1130BC0ED55FB4F0180F281E02D86819781909352
S1130BD0C8048093C70408958F929F92BF92CF92C6
S1130BE0DF92EF92FF920F931F93CF93DF9387309F
S1130BF070F126C0292F2F70E7012883891731F05F
S1130C00E80178812081E401588103C0242F762FE4
S1130C105B2D21FF12C03C913E7F3C9330813D7F90
S1130C2030833C9131603C93E80178832083E40174
S1130C305883E6012881222344F49F5F9730D1F63C
S1130C408F708093E90081E021C080E01FC0982F5D
S1130C509F709093E900982F242F762F50E0ABEEED
S1130C60B0E0EDEEF0E00CEE10E00F2EF0EF8F2E82
S1130C70912CF02D0F2EFEEECF2ED12CF02D0F2E19
S1130C80F9EEEF2EF12CF02DB12CC3CFDF91CF91E3
S1130C901F910F91FF90EF90DF90CF90BF909F90A6
S1130CA08F9008951F920F920FB60F9211242F93D5
S1130CB03F934F935F936F937F938F939F93AF93E0
S1130CC0BF93EF93FF938091E10082FF0BC080916B
S1130CD0E20082FF07C0E1EEF0E080818B7F808339
S1130CE00E9419078091DA0080FF1FC08091D8000C
S1130CF080FF1BC0EAEDF0E080818E7F80838091CD
S1130D00D90080FF0DC080E189BD82E189BD09B4AD
S1130D1000FEFDCF81E08093CD040E94190705C039
S1130D2019BC1092CD040E9419078091E10080FF44
S1130D3017C08091E20080FF13C0E2EEF0E08081F2
S1130D408E7F8083808180618083E8EDF0E0808104
S1130D508062808319BC85E08093CD040E941907CA
S1130D608091E10084FF30C08091E20084FF2CC0B8
S1130D7080E189BD82E189BD09B400FEFDCFE8EDC3
S1130D80F0E080818F7D8083E1EEF0E080818F7ED2
S1130D908083E2EEF0E080818F7E808380818160B9
S1130DA080838091C904882321F084E08093CD045A
S1130DB009C08091E300882314F081E001C083E03E
S1130DC08093CD040E9419078091E10083FF20C025
S1130DD08091E20083FF1CC0E1EEF0E08081877F18
S1130DE0808382E08093CD041092C90480818E7F39
S1130DF08083E2EEF0E080818E7F80838081806159
S1130E00808342E060E080E00E94EC050E941907C4
S1130E10FF91EF91BF91AF919F918F917F916F91CE
S1130E205F914F913F912F910F900FBE0F901F90A4
S1130E3018950895CF93DF93CDB7DEB7A0970FB67B
S1130E40F894DEBF0FBECDBF0E945A0B0E94EF0A7A
S1130E500E940B0B80E00E941C0981E00E941C0987
S1130E6082E00E941C0983E00E941C0984E00E9425
S1130E701C0985E00E941C0980E00E94B60A81E0FA
S1130E800E94B60A82E00E94B60A83E00E94B60A73
S1130E9084E00E94B60A85E00E94B60A80E00E94BF
S1130EA0550981E00E94550982E00E94550983E0BA
S1130EB00E94550984E00E94550985E00E94550965
S1130EC08FE00E947C0980E20E94A0090E948108B0
S1130ED001E31CE42CE43CE44CE450E060E070E00A
S1130EE081E00E94010A02E32CE43CE44CE450E07B
S1130EF060E070E082E00E94010A03E32CE43CE439
S1130F004CE450E060E070E083E00E94010A04E3F6
S1130F102CE43CE44CE450E060E070E084E00E94A7
S1130F20010A05E32CE43CE44CE450E060E070E0AA
S1130F3085E00E94010AA12CB12C0F2EF7E08F2E20
S1130F40F1E09F2EF02DCE0101966C01BF92AF927D
S1130F509F928F92DF92CF920E943B0CF6010190F8
S1130F600020E9F731977F01EC18FD08860128E499
S1130F7034E542E551E465E470E080E090E00E94ED
S1130F80E60B0F900F900F900F900F900F909FEF24
S1130F90A91AB90A88EE93E00E945F05D7CFA12C65
S1130FA0B12CC12CD12CE12CF12C00E020E030E05C
S1130FB048EC50E060E271E08AE197E00E94CB02E5
S1130FC00E94D303FFCF8EBD0DB407FEFDCF8EB5B7
S1130FD00895FC0180818EBD0DB407FEFDCF8EB552
S1130FE00895882311F02C9A01C02C988093D7047B
S1130FF00895882311F05F9A01C05F988093D60406
S11310000895FF920F931F93CF93DF93F82E8B01D4
S1131010EA0180E00E94F9078F2D8F710E94E30797
S11310201C161D0674F4F801A8014C0F5D1F9FEFF8
S11310309EBD0DB407FEFDCF8EB58193E417F50771
S1131040B9F781E00E94F907DF91CF911F910F91C9
S1131050FF900895EF92FF920F931F93CF93DF9326
S1131060C82F7B018A0180E00E94F9078C2F8F71C1
S113107080620E94E3071016110654F4E7010E0D76
S11310801F1DCE010E94E9072196C017D107C9F799
S113109081E00E94F907DF91CF911F910F91FF909A
S11310A0EF900895EF92FF920F931F93CF93DF93E6
S11310B07C018B0180E00E94F90780EA0E94E3072B
S11310C01016110654F4E7010E0D1F1DCE010E94E7
S11310D0E9072196C017D107C9F781E00E94F907F3
S11310E0DF91CF911F910F91FF90EF90089580E0D1
S11310F00E94F90781EE0E94E30781E00E94F9074C
S1131100089580E00E94F90782EE0E94E30781E0DF
S11311100E94F9070895CF9380E00E94F9078FEFAA
S11311200E94E307C82F81E00E94F9078C2F90E00A
S1131130CF910895CF93DF931F92CDB7DEB741E0EF
S113114050E0BE016F5F7F4F80E00E9401088981FB
S11311508260898341E050E0BE016F5F7F4F80E091
S11311600E942A088FE496E40197F1F700C000007A
S113117082E08093D8040F90DF91CF910895CF93AC
S1131180DF931F92CDB7DEB741E050E0BE016F5F41
S11311907F4F80E00E94010889818D7F898341E02F
S11311A050E0BE016F5F7F4F80E00E942A0881E01B
S11311B08093D8040F90DF91CF910895CF93DF935C
S11311C01F92CDB7DEB741E050E0BE016F5F7F4FA5
S11311D080E00E94010889818160898341E050E0B8
S11311E0BE016F5F7F4F80E00E942A0883E08093F6
S11311F0D8040F90DF91CF910895CF93DF931F927E
S1131200CDB7DEB741E050E0BE016F5F7F4F80E0B5
S11312100E94010889818E7F898341E050E0BE01EC
S11312206F5F7F4F80E00E942A0884E08093D80497
S11312300F90DF91CF9108951F93CF93DF931F9267
S1131240CDB7DEB7182F41E050E0BE016F5F7F4F8E
S113125081E00E94010821E030E0C90102C0880F4A
S1131260991F1A95E2F79981892B898341E050E00F
S1131270BE016F5F7F4F81E00E942A080F90DF91CB
S1131280CF911F910895CF93DF931F92CDB7DEB70F
S1131290198241E050E0BE016F5F7F4F81E00E9400
S11312A02A080F90DF91CF9108951F93CF93DF9376
S11312B01F92CDB7DEB7182F41E050E0BE016F5F3B
S11312C07F4F82E00E94010821E030E0C90102C0A2
S11312D0880F991F1A95E2F79981892B898341E038
S11312E050E0BE016F5F7F4F82E00E942A080F909A
S11312F0DF91CF911F9108951F93CF93DF931F9296
S1131300CDB7DEB7182F41E050E0BE016F5F7F4FCD
S113131084E00E94010820E1129FC00111249981F8
S11313209F70892B898341E050E0BE016F5F7F4F3E
S113133084E00E942A080F90DF91CF911F910895B5
S11313401F93CF93DF931F92CDB7DEB7182F41E0E1
S113135050E0BE016F5F7F4F86E00E9401089981D3
S1131360977D812F892B898341E050E0BE016F5F17
S11313707F4F86E00E942A080F90DF91CF911F9142
S113138008950E948B08929582958F7089279F708B
S1131390892781700895CF93DF931F92CDB7DEB76D
S11313A00E948B088061898341E050E0BE016F5F39
S11313B07F4F87E00E942A080F90DF91CF91089514
S11313C00E948B0896958795929582958F708927B0
S11313D09F70892781700895CF93DF931F92CDB7B3
S11313E0DEB70E948B088062898341E050E0BE0131
S11313F06F5F7F4F87E00E942A080F90DF91CF91A3
S113140008952F923F924F925F926F927F928F92A4
S11314109F92AF92BF92CF92DF92EF92FF920F937F
S11314201F93CF93DF9300D000D01F92CDB7DEB7C8
S1131430482EB02EA22E932E842E752E662E572E55
S113144081E0841568F421E090E08EEF840D84300F
S113145008F020E0C22ED92E1C141D0434F021C043
S11314600F2EF5E0CF2ED12CF02DDE0111967D014B
S1131470212C312CE0E0F0E02B2D312F4A2D592D79
S1131480682D772D862D952D022D0E941F0CD701D6
S11314902D937D013196B8E02B0E311CEC15FD0522
S11314A05CF3A601BE016F5F7F4F8AE0840D0E944A
S11314B02A080F900F900F900F900F90DF91CF910B
S11314C01F910F91FF90EF90DF90CF90BF90AF905E
S11314D09F908F907F906F905F904F903F902F9050
S11314E008959F92AF92BF92CF92DF92EF92FF92B4
S11314F00F931F93CF93DF9300D000D01F92CDB7EB
S1131500DEB7922EA32EB42EC52ED62EE72EF82E9D
S1131510192FDE011196E0E0F0E0292D3A2D4B2D34
S11315205C2D6D2D7E2D8F2D912F0E2F0E941F0C63
S11315302D933896E832F10581F745E050E0BE017D
S11315406F5F7F4F80E10E942A080F900F900F90E9
S11315500F900F90DF91CF911F910F91FF90EF901B
S1131560DF90CF90BF90AF909F9008951F93CF933B
S1131570DF931F92CDB7DEB7182F41E050E0BE01D4
S11315806F5F7F4F8CE10E94010821E030E0C901C8
S113159002C0880F991F1A95E2F79981892B8983D4
S11315A041E050E0BE016F5F7F4F8CE10E942A084A
S11315B00F90DF91CF911F910895CF93DF931F92E6
S11315C0CDB7DEB7198241E050E0BE016F5F7F4FB7
S11315D08CE10E942A080F90DF91CF910895CF9358
S11315E0DF931F92CDB7DEB741E050E0BE016F5FDD
S11315F07F4F8DE10E94010889818460898341E0E5
S113160050E0BE016F5F7F4F8DE10E942A080F906A
S1131610DF91CF910895CF93DF931F92CDB7DEB7BB
S113162041E050E0BE016F5F7F4F8DE10E940108F1
S113163089818260898341E050E0BE016F5F7F4F02
S11316408DE10E942A080F90DF91CF910895CF93E6
S1131650DF931F92CDB7DEB787E0898341E050E086
S1131660BE016F5F7F4F86E00E942A08198241E025
S113167050E0BE016F5F7F4F81E00E942A0881E045
S1131680898341E050E0BE016F5F7F4F86E00E9496
S11316902A080E949A088FE496E40197F1F700C0A3
S11316A000000E94DE0881E00E94F1070F90DF91A4
S11316B0CF910895CF93DF9300D0CDB7DEB7579A7B
S11316C0249A2C985F9A84B1876084B923988CB546
S11316D080658CBD80E00E94F10781E00E94F907DB
S11316E00E9481080E94BF088EE0898341E050E097
S11316F0BE016F5F7F4F87E00E942A088BE08A83D8
S113170041E050E0BE016E5F7F4F80E00E942A08F6
S11317100E9443090E94DD0A0E94270B0F900F903C
S1131720DF91CF910895EF92FF920F931F93CF9380
S1131730DF937C01EB011091D70480E00E94F10754
S11317401C161D06D4F50E94EC09BE01A19714F0E5
S113175060E270E0C7010E9452080091D8040E9420
S1131760FD0881E00E94F10785E38A95F1F7000006
S113177080E00E94F10704C00E94C109811107C0E2
S11317800E94E0098823C1F3D0E0C0E002C0DFEF8B
S1131790CFEF0E9477080E94EC090E94CB09033026
S11317A011F40E94DE08812F0E94F10785E18A95D9
S11317B0F1F700008D2F9C2F02C080E090E0DF91B4
S11317C0CF911F910F91FF90EF9008956F927F92A8
S11317D08F929F92AF92BF92CF92DF92EF92FF923D
S11317E00F931F93CF93DF93622E732EA42EB52EE7
S11317F0C62ED72ED82FC92F48010E94710A062D54
S1131800172D2A2D3B2D4C2D5D2D6D2F7C2F80E027
S11318100E94010AB701C4010E94930BDF91CF918A
S11318201F910F91FF90EF90DF90CF90BF90AF90FA
S11318309F908F907F906F90089597FB10F8169467
S113184000080F93083098F00850232F342F452FA9
S1131850562F672F782F892F902DF4CF05949795C5
S113186087957795679557954795379527950A9561
S1131870AAF70F910895AEE0B0E0E1E4FCE00C9427
S1131880EA0E0D891E8986E08C831A8309838FEF03
S11318909FE79E838D83AE01475E5F4F6F89788D8E
S11318A0CE0101960E945E0C2F813885F801E20F6B
S11318B0F31F10822E96E4E00C94060FACE0B0E027
S11318C0E4E6FCE00C94DC0E7C016B018A01FC0173
S11318D017821682838181FFBDC1CE0101964C011E
S11318E0F7019381F60193FD859193FF81916F0137
S11318F0882309F4ABC1853239F493FD859193FFB4
S113190081916F01853229F4B70190E00E94460E5F
S1131910E7CF512C312C20E02032A0F48B3269F037
S113192030F4803259F0833269F420612CC08D3256
S113193039F0803339F4216026C02260246023C04A
S1131940286021C027FD27C030ED380F3A3078F4E5
S113195026FF06C0FAE05F9E300D1124532E13C0FB
S11319608AE0389E300D1124332E20620CC08E3252
S113197021F426FD6BC1206406C08C3611F4206866
S113198002C0883641F4F60193FD859193FF81915D
S11319906F018111C1CF982F9F7D9554933028F406
S11319A00C5F1F4FFFE3F9830DC0833631F083379B
S11319B071F0833509F05BC022C0F801808189830E
S11319C00E5F1F4F44244394512C540115C0380119
S11319D0F2E06F0E711CF801A080B18026FF03C0F5
S11319E0652D70E002C06FEF7FEFC5012C870E9468
S11319F03B0E2C0183012C852F77222E17C0380132
S1131A00F2E06F0E711CF801A080B18026FF03C0C4
S1131A10652D70E002C06FEF7FEFC5012C870E9437
S1131A20300E2C012C852068222E830123FC1BC040
S1131A30832D90E048165906B0F4B70180E290E097
S1131A400E94460E3A94F4CFF50127FC859127FEB7
S1131A5081915F01B70190E00E94460E31103A94E3
S1131A60F1E04F1A51084114510471F7E5C084366E
S1131A7011F0893639F5F80127FF07C060817181BB
S1131A80828193810C5F1F4F08C060817181072E92
S1131A90000C880B990B0E5F1F4F2F76722E97FF49
S1131AA009C090958095709561957F4F8F4F9F4F9A
S1131AB02068722E2AE030E0A4010E947E0EA82E37
S1131AC0A81844C0853729F42F7EB22E2AE030E0CE
S1131AD025C0F22FF97FBF2E8F36C1F018F4883558
S1131AE079F0B4C0803719F0883721F0AFC02F2FB8
S1131AF02061B22EB4FE0DC08B2D8460B82E09C0B7
S1131B0024FF0AC09F2F9660B92E06C028E030E05B
S1131B1005C020E130E002C020E132E0F801B7FE68
S1131B2007C060817181828193810C5F1F4F06C061
S1131B306081718180E090E00E5F1F4FA4010E94DC
S1131B407E0EA82EA818FB2DFF777F2E76FE0BC0E5
S1131B50372D3E7FA51450F474FE0AC072FC08C0F1
S1131B60372D3E7E05C0BA2C372D03C0BA2C01C0D8
S1131B70B52C34FF0DC0FE01EA0DF11D80818033C8
S1131B8011F4397E09C032FF06C0B394B39404C083
S1131B90832F867809F0B39433FD13C030FF06C059
S1131BA05A2CB31418F4530C5B18B32CB31468F404
S1131BB0B70180E290E03C870E94460EB3943C85D6
S1131BC0F5CFB31410F43B1801C0312C34FF12C00C
S1131BD0B70180E390E03C870E94460E3C8532FFCB
S1131BE017C031FD03C088E790E002C088E590E0AB
S1131BF0B7010CC0832F867859F031FF02C08BE205
S1131C0001C080E237FD8DE2B70190E00E94460EEC
S1131C10A51438F4B70180E390E00E94460E5A946C
S1131C20F7CFAA94F401EA0DF11D8081B70190E089
S1131C300E94460EA110F5CF332009F451CEB7010E
S1131C4080E290E00E94460E3A94F6CFF701868136
S1131C50978102C08FEF9FEF2C96E2E10C94F80E6F
S1131C60FC010590615070400110D8F78095909563
S1131C708E0F9F1F0895FC01615070400190011068
S1131C80D8F7809590958E0F9F1F08950F931F93FB
S1131C90CF93DF93FB01238121FD03C08FEF9FEFDF
S1131CA028C022FF16C046815781248135814217FE
S1131CB0530744F4A081B1819D012F5F3F4F3183CD
S1131CC020838C93268137812F5F3F4F3783268370
S1131CD010C0EB01092F182F0084F185E02D099520
S1131CE0892BE1F68E819F8101969F838E83812FBC
S1131CF0902FDF91CF911F910F910895FA01AA2798
S1131D00283051F1203181F1E8946F936E7F6E5F3A
S1131D107F4F8F4F9F4FAF4FB1E03ED0B4E03CD0E8
S1131D20670F781F891F9A1FA11D680F791F8A1FCB
S1131D30911DA11D6A0F711D811D911DA11D20D032
S1131D4009F468943F912AE0269F11243019305DEC
S1131D503193DEF6CF010895462F4770405D4193DD
S1131D60B3E00FD0C9F7F6CF462F4F70405D4A332A
S1131D7018F0495D31FD4052419302D0A9F7EACFF2
S1131D80B4E0A6959795879577956795BA95C9F721
S1131D9000976105710508959B01AC010A2E069414
S1131DA05795479537952795BA95C9F7620F731FCD
S1131DB0841F951FA01D08952F923F924F925F920A
S1131DC06F927F928F929F92AF92BF92CF92DF9247
S1131DD0EF92FF920F931F93CF93DF93CDB7DEB7AC
S1131DE0CA1BDB0B0FB6F894DEBF0FBECDBF099440
S1131DF02A88398848885F846E847D848C849B8497
S1131E00AA84B984C884DF80EE80FD800C811B81A4
S1131E10AA81B981CE0FD11D0FB6F894DEBF0FBED3
S10D1E20CDBFED010895F894FFCF43
S1131E2AFFFF49444C450074686973206973206153
S1131E3A2073616D706C6520746578742025640064
S1071E4A74330000E9
S9030000FC
